:100000000C9428010C9459010C9459010C94590139
:100010000C9459010C9459010C9459010C945901F8
:100020000C9459010C9459010C9459010C945901E8
:100030000C9459010C9459010C9459010C945901D8
:100040000C9459010C9477060C9459010C945901A5
:100050000C9459010C9459010C9459010C944305CA
:100060000C9459010C94B7050C948D050C9459010E
:100070000C9459010C9459010C9459010C94590198
:100080000C9449060C9459010C9459010C94590193
:100090000C9459010C9459010C9459010C94590178
:1000A0000C9459010C9459010C941B060C945901A1
:1000B0000C9459010C9459010C9459010C94ED05C0
:1000C0000C9459010C9459010C9459010C94590148
:1000D0000C9459010C9459010C9459010C94590138
:1000E0000C9459010C9458030C949D020C944A03EF
:1000F0000C9462030C947A010C9466030C94C00671
:100100000C946A030C945C030C944E030C947003DF
:100110000C943D030C9435030C9454030C94390354
:100120000C9450020C9423030C9444030C941E036F
:100130000C94A7010C9474030C94CA010C94B6019E
:100140000C9441030C94180200000A0B02090C0DD8
:100150000E0807030401000000000000000000007A
:10016000000000000000000000000000000000008F
:10017000000000001211100000000000000000004C
:10018000000000000000000000000000000000006F
:100190002200250028002B002E003100340002012F
:1001A0000000050108010B010000210024002700C8
:1001B0002A002D0030003300010100000401070176
:1001C0000A010505050507050808080802020202DC
:1001D0000A0A0808040404040101010101010101E3
:1001E0000303030303030303040707070C0C0C0CAE
:1001F0000C0C0C0C02020202060606060606060697
:100200000B0B0B0B0B0B0B0B010210202008081023
:100210002040102040800201020108040201010276
:10022000040810204080804020100804020180044F
:1002300002018040201008040201080402010102AA
:100240000408102040800102040810204080C006ED
:1002500011241FBECFEFD1E2DEBFCDBF00E00CBF47
:1002600012E0A0E0B2E0E4E4F7E100E00BBF02C07E
:1002700007900D92A033B107D9F723E0A0E3B2E0D5
:1002800001C01D92A038B207E1F711E0C8E2D1E049
:1002900000E006C021970109802FFE010E94980B03
:1002A000C732D10780E00807A9F70E9408070C941D
:1002B000A00B0C94000090E0FC01E85FFD4F24913E
:1002C0008E539E4FFC018491882399F090E0880F13
:1002D000991FFC01E855FE4FA591B491FC01E2572E
:1002E000FE4F859194918FB7F894EC91E22BEC93AB
:1002F0008FBF0895AF92BF92CF92DF92EF92FF929D
:100300000F931F93CF93DF936C017B018B01040F3D
:10031000151FEB015E01AE18BF08C017D10759F0D9
:100320006991D601ED91FC910190F081E02DC6011B
:100330001995892B79F7C501DF91CF911F910F9105
:10034000FF90EF90DF90CF90BF90AF900895FC01A9
:10035000538D448D252F30E0842F90E0821B930B2A
:10036000541710F0CF96089501970895FC01918DD0
:10037000828D981761F0A28DAE0FBF2FB11D5D96D3
:100380008C91928D9F5F9F73928F90E008958FEF75
:100390009FEF0895FC01918D828D981731F0828D29
:1003A000E80FF11D858D90E008958FEF9FEF089580
:1003B0002FB7F8948091CA029091CB02A091CC0201
:1003C000B091CD022FBF8093D6029093D702A09315
:1003D000D802B093D9028EEC92E00E94CA0197FF36
:1003E00026C02FB7F8948091CA029091CB02A091B9
:1003F000CC02B091CD022FBF4091D6025091D702CE
:100400006091D8027091D902841B950BA60BB70B93
:100410004091D2025091D3026091D4027091D502E2
:1004200084179507A607B707B0F28FEF9FEF0895DF
:10043000FC01918D228D892F90E0805C9F4F821B63
:1004400091098F73992708958EEC92E00E9418020B
:1004500021E0892B09F420E0822F0895FC01A48D6E
:10046000A80FB92FB11DA35ABF4F2C91848D90E0D6
:1004700001968F739927848FA689B7892C93A089B9
:10048000B1898C91837080648C93938D848D981343
:1004900006C00288F389E02D80818F7D80830895D6
:1004A000EF92FF920F931F93CF93DF93EC0181E0C4
:1004B000888F9B8D8C8D98131AC0E889F98980816B
:1004C00085FF15C09FB7F894EE89FF896083E8899E
:1004D000F98980818370806480839FBF81E090E090
:1004E000DF91CF911F910F91FF90EF900895F62E1D
:1004F0000B8D10E00F5F1F4F0F731127E02E8C8DB7
:100500008E110CC00FB607FCFACFE889F9898081FB
:1005100085FFF5CFCE010E942E02F1CFEB8DEC0FBF
:10052000FD2FF11DE35AFF4FF0829FB7F8940B8F18
:10053000EA89FB8980818062CFCFCF93DF93EC0182
:10054000888D8823B9F0AA89BB89E889F9898C91BB
:1005500085FD03C0808186FD0DC00FB607FCF7CF77
:100560008C9185FFF2CF808185FFEDCFCE010E9477
:100570002E02E9CFDF91CF91089580E090E0892BA2
:1005800029F00E94240281110E94000080E090E086
:10059000892B49F080E090E0892B29F00E9400002F
:1005A00081110E94000080E090E0892B49F080E0FA
:1005B00090E0892B29F00E94000081110E94000028
:1005C00080E090E0892B49F080E090E0892B29F0D1
:1005D0000E94000081110C9400000895282F30E043
:1005E000F901E85BFE4F9491F901E85FFD4F4491FA
:1005F0002E533E4FF9012491222309F435C099234B
:1006000011F191509231F8F4E92FF0E08827E45F7E
:10061000FC4F8F4F0C94980B3D0341031E03350391
:100620003903230344034A034E03540358035C0372
:100630006203660323036A037003740380918000DE
:100640008F7780938000E22FF0E0EE0FFF1FE257DC
:10065000FE4FA591B4918FB7F894EC91611148C009
:1006600040954E234C938FBF0895809180008F7DDD
:10067000E8CF80918000877FE4CF84B58F7784BDF9
:10068000E2CF84B58F7DFBCF8091B0008F778093D0
:10069000B000D9CF8091B0008F7DF9CF80919000CC
:1006A0008F7780939000CFCF809190008F7DF9CF8E
:1006B00080919000877FF5CF8091A0008F77809305
:1006C000A000C1CF8091A0008F7DF9CF8091A000C4
:1006D000877FF5CF809120018F7780932001B3CF62
:1006E000809120018F7DF9CF80912001877FF5CF08
:1006F0004E2BB8CFCF92DF92EF92FF92CF93DF9342
:10070000EC01603282E07807CCF5653B710514F0AE
:1007100064EB70E0898128E830E0281B310987FD0F
:100720003395220F331F220F331F6901330FEE0859
:10073000FF088A8128E532E0281B310987FD3395BF
:10074000220F331F220F331F032E000C440B550BB7
:100750002C193D094E095F09DB0177FF02C0B0E0AB
:10076000A0E00E94A60A24EB30E040E050E00E94A6
:100770007C0AC20ED31EE41EF51EB601E881E033EA
:1007800070F5298188E890E0821B910927FD9395F7
:10079000880F991F880F991F681779077CF02A81A5
:1007A00088E592E0821B910927FD9395880F991F98
:1007B000880F991F681779070CF4CB010297880FEF
:1007C000991F4FB7F8942E2F30E0F901EE0FFF1F5D
:1007D000E20FF31FEB5CFD4F928381834FBFDF91EC
:1007E000CF91FF90EF90DF90CF90089581309105E9
:1007F00081F41092800082E0809381001092850045
:1008000010928400B19A80916F00826080936F0093
:1008100008958230910569F41092900082E08093EF
:100820009100109295001092940088BB8093710003
:1008300008958330910569F41092A00082E08093BE
:10084000A1001092A5001092A40089BB80937200B1
:100850000895892B61F41092200182E08093210198
:1008600010922501109224018ABB80937300089591
:10087000AF92BF92CF92DF92EF92FF920F931F93AE
:10088000CF93DF936B017A01EC01C05DDD4F2881CE
:100890003CE0389F8001399F100D1124A090340254
:1008A000B12C27FF1FC0FB011182108288818F5F4E
:1008B000888388819801280F311D87FD3A95F601BC
:1008C0002A153B051CF488818C30C4F1808191810C
:1008D000049680349C4908F473C0F60180819181AC
:1008E000049670C088819801280F311D87FD3A95C4
:1008F0002A153B05DCF68881A801480F511D87FDAC
:100900005A95FA01EE0FFF1FE40FF51FEB5CFD4F48
:10091000808186FFCBCF8881F801E80FF11D87FD2C
:10092000FA95CF01EE0FFF1FE80FF91FEB5CFD4FAB
:10093000808160E08F730E94EE02B8CF8081918148
:100940002881A801420F511D27FD5A959A01FA01ED
:10095000EE0FFF1FE20FF31FEB5CFD4F2181328191
:10096000820F931FF7019183808388819801280F5C
:10097000311D87FD3A95F901EE0FFF1FE20FF31FBE
:10098000EB5CFD4F808186FF22C08881080F111D1E
:1009900087FD1A95F801EE0FFF1FE00FF11FEB5CCA
:1009A000FD4F808161E08F73DF91CF911F910F9197
:1009B000FF90EF90DF90CF90BF90AF900C94EE023D
:1009C00080E49CE9F701918380838FEF8883DF9136
:1009D000CF911F910F91FF90EF90DF90CF90BF903C
:1009E000AF900895FC0101900020E9F73197AF0125
:1009F000481B590BBC018EEC92E00C947A018F924B
:100A00009F92AF92BF920F931F93CF93DF93CDB777
:100A1000DEB7A1970FB6F894DEBF0FBECDBF19A207
:100A2000423008F44AE08E010F5D1F4F842E912C56
:100A3000B12CA12CA50194010E94AE0AE62FB901A8
:100A4000CA01EA30F4F4E05DD801EE938D01232B66
:100A5000242B252B79F790E080E0109719F0CD0139
:100A60000E94F204A1960FB6F894DEBF0FBECDBF70
:100A7000DF91CF911F910F91BF90AF909F908F907A
:100A80000895E95CE1CF1F920F920FB60F921124E7
:100A90002F933F938F939F93AF93BF938091CA02FD
:100AA0009091CB02A091CC02B091CD023091C902BD
:100AB00023E0230F2D3758F50196A11DB11D20937A
:100AC000C9028093CA029093CB02A093CC02B09348
:100AD000CD028091C5029091C602A091C702B0914B
:100AE000C8020196A11DB11D8093C5029093C60254
:100AF000A093C702B093C802BF91AF919F918F910D
:100B00003F912F910F900FBE0F901F90189526E8E0
:100B1000230F0296A11DB11DD2CF1F920F920FB6C7
:100B20000F9211240BB60F922F933F934F935F9325
:100B30006F937F938F939F93AF93BF93EF93FF93A5
:100B40008EEC92E00E942E02FF91EF91BF91AF9147
:100B50009F918F917F916F915F914F913F912F91D5
:100B60000F900BBE0F900FBE0F901F9018951F9205
:100B70000F920FB60F9211240BB60F922F938F93F3
:100B80009F93EF93FF93E091DE02F091DF0280816B
:100B9000E091E402F091E50282FD1DC09081809118
:100BA000E7028F5F8F732091E802821741F0E09196
:100BB000E702F0E0E253FD4F958F8093E702FF914B
:100BC000EF919F918F912F910F900BBE0F900FBEC1
:100BD0000F901F9018958081F2CF1F920F920FB641
:100BE0000F9211240BB60F922F933F934F935F9365
:100BF0006F937F938F939F93AF93BF93EF93FF93E5
:100C000048E251E064E271E090E080E00E94380444
:100C1000FF91EF91BF91AF919F918F917F916F91D4
:100C20005F914F913F912F910F900BBE0F900FBE90
:100C30000F901F9018951F920F920FB60F921124CC
:100C40000BB60F922F933F934F935F936F937F93C6
:100C50008F939F93AF93BF93EF93FF9348EA50E036
:100C600064EA70E083E090E00E943804FF91EF9125
:100C7000BF91AF919F918F917F916F915F914F91B4
:100C80003F912F910F900BBE0F900FBE0F901F90B2
:100C900018951F920F920FB60F9211240BB60F9258
:100CA0002F933F934F935F936F937F938F939F9374
:100CB000AF93BF93EF93FF9348E950E064E970E08E
:100CC00082E090E00E943804FF91EF91BF91AF91D4
:100CD0009F918F917F916F915F914F913F912F9154
:100CE0000F900BBE0F900FBE0F901F9018951F9284
:100CF0000F920FB60F9211240BB60F922F933F93C2
:100D00004F935F936F937F938F939F93AF93BF9313
:100D1000EF93FF9348E850E064E870E081E090E0F2
:100D20000E943804FF91EF91BF91AF919F918F91F5
:100D30007F916F915F914F913F912F910F900BBEDB
:100D40000F900FBE0F901F901895FC0190913402E8
:100D5000903398F481E0890F809334029083892F37
:100D600090E0FC01EE0FFF1FE80FF91FEB5CFD4F59
:100D700088EB9BE09283818308958FEF80830895B1
:100D8000EEECF2E01382128288EE93E0A0E0B0E095
:100D900084839583A683B78388E092E091838083E0
:100DA00085EC90E09587848784EC90E09787868730
:100DB00080EC90E0918B808B81EC90E0938B828B28
:100DC00082EC90E0958B848B86EC90E0978B868B01
:100DD000118E128E138E148E8DE793E00E94A5065D
:100DE0008AE793E00E94A50687E793E00E94A506A4
:100DF00084E793E00E94A50681E793E00E94A506A0
:100E00008EE693E00E94A5068BE693E00C94A5067F
:100E1000789484B5826084BD84B5816084BD85B5D5
:100E2000826085BD85B5816085BD80916E008160E1
:100E300080936E0010928100809181008260809387
:100E40008100809181008160809381008091800089
:100E50008160809380008091B10084608093B100B4
:100E60008091B00081608093B00080919100826099
:100E70008093910080919100816080939100809196
:100E800090008160809390008091A10082608093A7
:100E9000A1008091A10081608093A1008091A000B9
:100EA00081608093A0008091210182608093210164
:100EB00080912101816080932101809120018160D6
:100EC0008093200180917A00846080937A008091E1
:100ED0007A00826080937A0080917A0081608093AA
:100EE0007A0080917A00806880937A001092C10025
:100EF00080917A03803308F042C085E00E945B0154
:100F000080917A03282F30E0F901EE0FFF1FE20FE6
:100F1000F31FEB5CFD4F9081907C95609083109265
:100F20007B0310927C032CE0622F0E948C0B90E0DC
:100F3000829FB001112430E020E0AB01420F531F2B
:100F4000FA01EE0FFF1FE40FF51FEB5CFD4F408130
:100F500046FD07C02F5F3F4F2C30310571F70E94CF
:100F6000F603E0917A038E2F90E0FC01EE0FFF1F55
:100F7000E80FF91FEB5CFD4F8081806480838091D6
:100F80007703803308F042C086E00E945B018091C5
:100F90007703282F30E0F901EE0FFF1FE20FF31F58
:100FA000EB5CFD4F9081907C96609083109278036B
:100FB000109279032CE0622F0E948C0B90E0829FAC
:100FC000B001112430E020E0AB01420F531FFA01C1
:100FD000EE0FFF1FE40FF51FEB5CFD4F408146FD58
:100FE00007C02F5F3F4F2C30310571F70E94F60389
:100FF000E09177038E2F90E0FC01EE0FFF1FE80FCA
:10100000F91FEB5CFD4F808180648083E091DE02FC
:10101000F091DF0282E08083E091DA02F091DB025E
:101020001082E091DC02F091DD028FEC808310925F
:10103000E602E091E202F091E30286E08083E09133
:10104000E002F091E102808180618083E091E00222
:10105000F091E102808188608083E091E002F0916C
:10106000E102808180688083E091E002F091E102FA
:1010700080818F7D808369E570E08AE793E00E943C
:101080007A0386E192E00E94F2048EEC92E00E94E4
:101090001802892BD1F30E94D801FC0197FD70C082
:1010A0008D32910521F0C0970A9708F062C0C12CDB
:1010B000D12C7601C0E0E130F105D9F0ED32F10537
:1010C00009F45CC0CF01C0970A9798F4AAE0B0E099
:1010D000A70196010E949B0A6F01FF0FEE08FF080F
:1010E000C60ED71EE81EF91E80E3C81AD108E10813
:1010F000F1088EEC92E00E94B6010E94D801FC013A
:10110000C0970A97C0F2E130F105A9F2CC2341F073
:10111000F094E094D094C094C11CD11CE11CF11C4B
:10112000C701B6010E945F096B017C014B015C01A4
:10113000C0920002D0920102E0920202F0920302F9
:101140000E944C0B87E793E00E947A03A701960167
:10115000C701B6010E94870B8823B1F080E292E0BC
:101160000E94F2048CE292E00E94F2040E94BD020E
:1011700088CF8EEC92E00E94B6018DCFC1E0B9CF4E
:10118000C12CD12C7601CCCF26013701E89477F819
:101190002FEF3FEF4FE75FE7C301B2010E94870BDC
:1011A00081110DC02FEF3FEF4FE75FE7C301B201A1
:1011B0000E94580918161CF484E292E0D1CF2FEF58
:1011C0003FEF4FE75FE4C701B6010E94820B18169C
:1011D0001CF488E292E0C4CF2FEF3FEF4FE75FECC3
:1011E000C701B6010E94580987FDF3CF20E030E027
:1011F000A901C701B6010E94580987FF0BC06DE223
:101200008EEC92E00E94500246015701B7FAB0946A
:10121000B7F8B0942AE037ED43EA5BE3C501B401C7
:101220000E94E00A4B015C010E94530B6B017C01A0
:101230000E945D099B01AC01C501B4010E94DF0A57
:101240004B015C014AE0C701B6010E94FF046EE257
:101250008EEC92E00E94500220E030E040E251E447
:10126000C501B4010E94BE094B015C010E94530BF1
:101270006B01F12CE12C4AE0C701B6010E94FF048A
:10128000C701B6010E945D099B01AC01C501B40113
:101290000E94DF0A20E030E040E251E40E94BE09F3
:1012A0000E94530B90E080E04AE00E94FF045ACF76
:1012B0000E949A0908F481E00895E89409C097FB18
:1012C0003EF490958095709561957F4F8F4F9F4F1D
:1012D0009923A9F0F92F96E9BB279395F695879561
:1012E00077956795B795F111F8CFFAF4BB0F11F424
:1012F00060FF1BC06F5F7F4F8F4F9F4F16C08823CB
:1013000011F096E911C0772321F09EE8872F762F00
:1013100005C0662371F096E8862F70E060E02AF041
:101320009A95660F771F881FDAF7880F969587952D
:1013300097F90895990F0008550FAA0BE0E8FEEF02
:1013400016161706E807F907C0F012161306E40789
:10135000F50798F0621B730B840B950B39F40A2682
:1013600061F0232B242B252B21F408950A2609F460
:10137000A140A6958FEF811D811D08950E94D1097E
:101380000C94420A0E94340A38F00E943B0A20F072
:10139000952311F00C942B0A0C94310A11240C940F
:1013A000760A0E94530A70F3959FC1F3950F50E09F
:1013B000551F629FF001729FBB27F00DB11D639F07
:1013C000AA27F00DB11DAA1F649F6627B00DA11DAD
:1013D000661F829F2227B00DA11D621F739FB00D53
:1013E000A11D621F839FA00D611D221F749F3327C3
:1013F000A00D611D231F849F600D211D822F762F5C
:101400006A2F11249F5750409AF0F1F088234AF038
:10141000EE0FFF1FBB1F661F771F881F91505040A4
:10142000A9F79E3F510580F00C942B0A0C94760A84
:101430005F3FE4F3983ED4F3869577956795B7952B
:10144000F795E7959F5FC1F7FE2B880F911D969545
:10145000879597F9089597F99F6780E870E060E0B5
:1014600008959FEF80EC089500240A94161617063D
:1014700018060906089500240A9412161306140685
:1014800005060895092E0394000C11F4882352F0E8
:10149000BB0F40F4BF2B11F460FF04C06F5F7F4FA0
:1014A0008F4F9F4F089557FD9058440F551F59F087
:1014B0005F3F71F04795880F97FB991F61F09F3F41
:1014C00079F087950895121613061406551FF2CF6A
:1014D0004695F1DF08C0161617061806991FF1CFBA
:1014E00086957105610508940895E894BB276627E1
:1014F0007727CB0197F90895052E97FB1EF40094EA
:101500000E94930A57FD07D00E94AE0A07FC03D041
:101510004EF40C94930A50954095309521953F4F89
:101520004F4F5F4F089590958095709561957F4FCF
:101530008F4F9F4F08950E94D00AA59F900DB49F92
:10154000900DA49F800D911D11240895B7FF0C9458
:101550009B0A0E949B0A821B930B0895A1E21A2EFC
:10156000AA1BBB1BFD010DC0AA1FBB1FEE1FFF1F47
:10157000A217B307E407F50720F0A21BB30BE40B97
:10158000F50B661F771F881F991F1A9469F76095DE
:101590007095809590959B01AC01BD01CF01089598
:1015A000A29FB001B39FC001A39F700D811D1124A4
:1015B000911DB29F700D811D1124911D08955058E9
:1015C000BB27AA270E94F70A0C94420A0E94340AF9
:1015D00038F00E943B0A20F039F49F3F19F426F4BA
:1015E0000C94310A0EF4E095E7FB0C942B0AE92FDA
:1015F0000E94530A58F3BA176207730784079507C6
:1016000020F079F4A6F50C94750A0EF4E0950B2EF3
:10161000BA2FA02D0B01B90190010C01CA01A00144
:101620001124FF27591B99F0593F50F4503E68F19F
:101630001A16F040A22F232F342F4427585FF3CFE0
:10164000469537952795A795F0405395C9F77EF4B1
:101650001F16BA0B620B730B840BBAF09150A1F0FA
:10166000FF0FBB1F661F771F881FC2F70EC0BA0F80
:10167000621F731F841F48F4879577956795B79508
:10168000F7959E3F08F0B0CF9395880F08F0992703
:10169000EE0F9795879508950E94530B6894B111AA
:1016A0000C94760A08950E945B0A88F09F5798F080
:1016B000B92F9927B751B0F0E1F0660F771F881F57
:1016C000991F1AF0BA95C9F714C0B13091F00E9471
:1016D000750AB1E008950C94750A672F782F882752
:1016E000B85F39F0B93FCCF3869577956795B39598
:1016F000D9F73EF490958095709561957F4F8F4F07
:101700009F4F08950E949A0908F48FEF08950E9450
:101710009A09880B990B0895991B79E004C0991FC9
:10172000961708F0961B881F7A95C9F7809508953B
:10173000EE0FFF1F881F8BBF0790F691E02D1994C5
:04174000F894FFCF4B
:101744000000B4420000000050027A01A7019D028B
:101754001802B601CA01706F64616A20583A200009
:101764006E616E00696E66006F7666000D0A000099
:00000001FF
